{
  "_format": "hh-sol-artifact-1",
  "contractName": "ZombieFactory",
  "sourceName": "contracts/ZombieFactory.sol",
  "abi": [
    {
      "anonymous": false,
      "inputs": [
        {
          "indexed": false,
          "internalType": "uint256",
          "name": "zombieId",
          "type": "uint256"
        },
        {
          "indexed": false,
          "internalType": "string",
          "name": "name",
          "type": "string"
        },
        {
          "indexed": false,
          "internalType": "uint256",
          "name": "dna",
          "type": "uint256"
        }
      ],
      "name": "NewZombie",
      "type": "event"
    },
    {
      "anonymous": false,
      "inputs": [
        {
          "indexed": true,
          "internalType": "address",
          "name": "previousOwner",
          "type": "address"
        },
        {
          "indexed": true,
          "internalType": "address",
          "name": "newOwner",
          "type": "address"
        }
      ],
      "name": "OwnershipTransferred",
      "type": "event"
    },
    {
      "inputs": [
        {
          "internalType": "string",
          "name": "_name",
          "type": "string"
        }
      ],
      "name": "createRandomZombie",
      "outputs": [],
      "stateMutability": "nonpayable",
      "type": "function"
    },
    {
      "inputs": [],
      "name": "isOwner",
      "outputs": [
        {
          "internalType": "bool",
          "name": "",
          "type": "bool"
        }
      ],
      "stateMutability": "view",
      "type": "function"
    },
    {
      "inputs": [],
      "name": "owner",
      "outputs": [
        {
          "internalType": "address",
          "name": "",
          "type": "address"
        }
      ],
      "stateMutability": "view",
      "type": "function"
    },
    {
      "inputs": [],
      "name": "renounceOwnership",
      "outputs": [],
      "stateMutability": "nonpayable",
      "type": "function"
    },
    {
      "inputs": [
        {
          "internalType": "address",
          "name": "newOwner",
          "type": "address"
        }
      ],
      "name": "transferOwnership",
      "outputs": [],
      "stateMutability": "nonpayable",
      "type": "function"
    },
    {
      "inputs": [
        {
          "internalType": "uint256",
          "name": "",
          "type": "uint256"
        }
      ],
      "name": "zombieToOwner",
      "outputs": [
        {
          "internalType": "address",
          "name": "",
          "type": "address"
        }
      ],
      "stateMutability": "view",
      "type": "function"
    },
    {
      "inputs": [
        {
          "internalType": "uint256",
          "name": "",
          "type": "uint256"
        }
      ],
      "name": "zombies",
      "outputs": [
        {
          "internalType": "string",
          "name": "name",
          "type": "string"
        },
        {
          "internalType": "uint256",
          "name": "dna",
          "type": "uint256"
        },
        {
          "internalType": "uint32",
          "name": "level",
          "type": "uint32"
        },
        {
          "internalType": "uint32",
          "name": "readyTime",
          "type": "uint32"
        },
        {
          "internalType": "uint16",
          "name": "winCount",
          "type": "uint16"
        },
        {
          "internalType": "uint16",
          "name": "lossCount",
          "type": "uint16"
        }
      ],
      "stateMutability": "view",
      "type": "function"
    }
  ],
  "bytecode": "0x60806040526010600155600154600a6200001a919062000280565b600255620151806003553480156200003157600080fd5b50336000806101000a81548173ffffffffffffffffffffffffffffffffffffffff021916908373ffffffffffffffffffffffffffffffffffffffff16021790555060008054906101000a900473ffffffffffffffffffffffffffffffffffffffff1673ffffffffffffffffffffffffffffffffffffffff16600073ffffffffffffffffffffffffffffffffffffffff167f8be0079c531659141344cd1fd0a4f28419497f9722a3daafe3b4186f6b6457e060405160405180910390a3620002d1565b7f4e487b7100000000000000000000000000000000000000000000000000000000600052601160045260246000fd5b60008160011c9050919050565b6000808291508390505b60018511156200018157808604811115620001595762000158620000f3565b5b6001851615620001695780820291505b8081029050620001798562000122565b945062000139565b94509492505050565b6000826200019c57600190506200026f565b81620001ac57600090506200026f565b8160018114620001c55760028114620001d05762000206565b60019150506200026f565b60ff841115620001e557620001e4620000f3565b5b8360020a915084821115620001ff57620001fe620000f3565b5b506200026f565b5060208310610133831016604e8410600b8410161715620002405782820a9050838111156200023a5762000239620000f3565b5b6200026f565b6200024f84848460016200012f565b92509050818404811115620002695762000268620000f3565b5b81810290505b9392505050565b6000819050919050565b60006200028d8262000276565b91506200029a8362000276565b9250620002c97fffffffffffffffffffffffffffffffffffffffffffffffffffffffffffffffff84846200018a565b905092915050565b61135480620002e16000396000f3fe608060405234801561001057600080fd5b506004361061007d5760003560e01c80637bff0a011161005b5780637bff0a01146100f15780638da5cb5b1461010d5780638f32d59b1461012b578063f2fde38b146101495761007d565b80632052465e14610082578063528b7b8f146100b7578063715018a6146100e7575b600080fd5b61009c60048036038101906100979190610907565b610165565b6040516100ae96959493929190610a0f565b60405180910390f35b6100d160048036038101906100cc9190610907565b610275565b6040516100de9190610ab8565b60405180910390f35b6100ef6102a8565b005b61010b60048036038101906101069190610c08565b6103ad565b005b61011561044a565b6040516101229190610ab8565b60405180910390f35b610133610473565b6040516101409190610c6c565b60405180910390f35b610163600480360381019061015e9190610cb3565b6104ca565b005b6004818154811061017557600080fd5b906000526020600020906003020160009150905080600001805461019890610d0f565b80601f01602080910402602001604051908101604052809291908181526020018280546101c490610d0f565b80156102115780601f106101e657610100808354040283529160200191610211565b820191906000526020600020905b8154815290600101906020018083116101f457829003601f168201915b5050505050908060010154908060020160009054906101000a900463ffffffff16908060020160049054906101000a900463ffffffff16908060020160089054906101000a900461ffff169080600201600a9054906101000a900461ffff16905086565b60056020528060005260406000206000915054906101000a900473ffffffffffffffffffffffffffffffffffffffff1681565b6102b0610473565b6102ef576040517f08c379a00000000000000000000000000000000000000000000000000000000081526004016102e690610d8c565b60405180910390fd5b600073ffffffffffffffffffffffffffffffffffffffff1660008054906101000a900473ffffffffffffffffffffffffffffffffffffffff1673ffffffffffffffffffffffffffffffffffffffff167f8be0079c531659141344cd1fd0a4f28419497f9722a3daafe3b4186f6b6457e060405160405180910390a360008060006101000a81548173ffffffffffffffffffffffffffffffffffffffff021916908373ffffffffffffffffffffffffffffffffffffffff160217905550565b6000600660003373ffffffffffffffffffffffffffffffffffffffff1673ffffffffffffffffffffffffffffffffffffffff168152602001908152602001600020541461042f576040517f08c379a000000000000000000000000000000000000000000000000000000000815260040161042690610e1e565b60405180910390fd5b600061043a8261051d565b90506104468282610562565b5050565b60008060009054906101000a900473ffffffffffffffffffffffffffffffffffffffff16905090565b60008060009054906101000a900473ffffffffffffffffffffffffffffffffffffffff1673ffffffffffffffffffffffffffffffffffffffff163373ffffffffffffffffffffffffffffffffffffffff1614905090565b6104d2610473565b610511576040517f08c379a000000000000000000000000000000000000000000000000000000000815260040161050890610d8c565b60405180910390fd5b61051a81610791565b50565b600080826040516020016105319190610e7a565b6040516020818303038152906040528051906020012060001c90506002548161055a9190610ec0565b915050919050565b60046040518060c00160405280848152602001838152602001600163ffffffff168152602001600354426105969190610f20565b63ffffffff168152602001600061ffff168152602001600061ffff16815250908060018154018082558091505060019003906000526020600020906003020160009091909190915060008201518160000190816105f39190611100565b506020820151816001015560408201518160020160006101000a81548163ffffffff021916908363ffffffff16021790555060608201518160020160046101000a81548163ffffffff021916908363ffffffff16021790555060808201518160020160086101000a81548161ffff021916908361ffff16021790555060a082015181600201600a6101000a81548161ffff021916908361ffff1602179055505050600060016004805490506106a891906111d2565b9050336005600083815260200190815260200160002060006101000a81548173ffffffffffffffffffffffffffffffffffffffff021916908373ffffffffffffffffffffffffffffffffffffffff160217905550600660003373ffffffffffffffffffffffffffffffffffffffff1673ffffffffffffffffffffffffffffffffffffffff168152602001908152602001600020600081548092919061074c90611206565b91905055507f88f026aacbbecc90c18411df4b1185fd8d9be2470f1962f192bf84a27d0704b78184846040516107849392919061124e565b60405180910390a1505050565b600073ffffffffffffffffffffffffffffffffffffffff168173ffffffffffffffffffffffffffffffffffffffff1603610800576040517f08c379a00000000000000000000000000000000000000000000000000000000081526004016107f7906112fe565b60405180910390fd5b8073ffffffffffffffffffffffffffffffffffffffff1660008054906101000a900473ffffffffffffffffffffffffffffffffffffffff1673ffffffffffffffffffffffffffffffffffffffff167f8be0079c531659141344cd1fd0a4f28419497f9722a3daafe3b4186f6b6457e060405160405180910390a3806000806101000a81548173ffffffffffffffffffffffffffffffffffffffff021916908373ffffffffffffffffffffffffffffffffffffffff16021790555050565b6000604051905090565b600080fd5b600080fd5b6000819050919050565b6108e4816108d1565b81146108ef57600080fd5b50565b600081359050610901816108db565b92915050565b60006020828403121561091d5761091c6108c7565b5b600061092b848285016108f2565b91505092915050565b600081519050919050565b600082825260208201905092915050565b60005b8381101561096e578082015181840152602081019050610953565b60008484015250505050565b6000601f19601f8301169050919050565b600061099682610934565b6109a0818561093f565b93506109b0818560208601610950565b6109b98161097a565b840191505092915050565b6109cd816108d1565b82525050565b600063ffffffff82169050919050565b6109ec816109d3565b82525050565b600061ffff82169050919050565b610a09816109f2565b82525050565b600060c0820190508181036000830152610a29818961098b565b9050610a3860208301886109c4565b610a4560408301876109e3565b610a5260608301866109e3565b610a5f6080830185610a00565b610a6c60a0830184610a00565b979650505050505050565b600073ffffffffffffffffffffffffffffffffffffffff82169050919050565b6000610aa282610a77565b9050919050565b610ab281610a97565b82525050565b6000602082019050610acd6000830184610aa9565b92915050565b600080fd5b600080fd5b7f4e487b7100000000000000000000000000000000000000000000000000000000600052604160045260246000fd5b610b158261097a565b810181811067ffffffffffffffff82111715610b3457610b33610add565b5b80604052505050565b6000610b476108bd565b9050610b538282610b0c565b919050565b600067ffffffffffffffff821115610b7357610b72610add565b5b610b7c8261097a565b9050602081019050919050565b82818337600083830152505050565b6000610bab610ba684610b58565b610b3d565b905082815260208101848484011115610bc757610bc6610ad8565b5b610bd2848285610b89565b509392505050565b600082601f830112610bef57610bee610ad3565b5b8135610bff848260208601610b98565b91505092915050565b600060208284031215610c1e57610c1d6108c7565b5b600082013567ffffffffffffffff811115610c3c57610c3b6108cc565b5b610c4884828501610bda565b91505092915050565b60008115159050919050565b610c6681610c51565b82525050565b6000602082019050610c816000830184610c5d565b92915050565b610c9081610a97565b8114610c9b57600080fd5b50565b600081359050610cad81610c87565b92915050565b600060208284031215610cc957610cc86108c7565b5b6000610cd784828501610c9e565b91505092915050565b7f4e487b7100000000000000000000000000000000000000000000000000000000600052602260045260246000fd5b60006002820490506001821680610d2757607f821691505b602082108103610d3a57610d39610ce0565b5b50919050565b7f4f776e61626c653a2063616c6c6572206973206e6f7420746865206f776e6572600082015250565b6000610d7660208361093f565b9150610d8182610d40565b602082019050919050565b60006020820190508181036000830152610da581610d69565b9050919050565b7f4f6e6c79206f6e65207a6f6d62696520706572206164647265737320696e207460008201527f6869732064656d6f210000000000000000000000000000000000000000000000602082015250565b6000610e0860298361093f565b9150610e1382610dac565b604082019050919050565b60006020820190508181036000830152610e3781610dfb565b9050919050565b600081905092915050565b6000610e5482610934565b610e5e8185610e3e565b9350610e6e818560208601610950565b80840191505092915050565b6000610e868284610e49565b915081905092915050565b7f4e487b7100000000000000000000000000000000000000000000000000000000600052601260045260246000fd5b6000610ecb826108d1565b9150610ed6836108d1565b925082610ee657610ee5610e91565b5b828206905092915050565b7f4e487b7100000000000000000000000000000000000000000000000000000000600052601160045260246000fd5b6000610f2b826108d1565b9150610f36836108d1565b9250828201905080821115610f4e57610f4d610ef1565b5b92915050565b60008190508160005260206000209050919050565b60006020601f8301049050919050565b600082821b905092915050565b600060088302610fb67fffffffffffffffffffffffffffffffffffffffffffffffffffffffffffffffff82610f79565b610fc08683610f79565b95508019841693508086168417925050509392505050565b6000819050919050565b6000610ffd610ff8610ff3846108d1565b610fd8565b6108d1565b9050919050565b6000819050919050565b61101783610fe2565b61102b61102382611004565b848454610f86565b825550505050565b600090565b611040611033565b61104b81848461100e565b505050565b5b8181101561106f57611064600082611038565b600181019050611051565b5050565b601f8211156110b45761108581610f54565b61108e84610f69565b8101602085101561109d578190505b6110b16110a985610f69565b830182611050565b50505b505050565b600082821c905092915050565b60006110d7600019846008026110b9565b1980831691505092915050565b60006110f083836110c6565b9150826002028217905092915050565b61110982610934565b67ffffffffffffffff81111561112257611121610add565b5b61112c8254610d0f565b611137828285611073565b600060209050601f83116001811461116a5760008415611158578287015190505b61116285826110e4565b8655506111ca565b601f19841661117886610f54565b60005b828110156111a05784890151825560018201915060208501945060208101905061117b565b868310156111bd57848901516111b9601f8916826110c6565b8355505b6001600288020188555050505b505050505050565b60006111dd826108d1565b91506111e8836108d1565b9250828203905081811115611200576111ff610ef1565b5b92915050565b6000611211826108d1565b91507fffffffffffffffffffffffffffffffffffffffffffffffffffffffffffffffff820361124357611242610ef1565b5b600182019050919050565b600060608201905061126360008301866109c4565b8181036020830152611275818561098b565b905061128460408301846109c4565b949350505050565b7f4f776e61626c653a206e6577206f776e657220697320746865207a65726f206160008201527f6464726573730000000000000000000000000000000000000000000000000000602082015250565b60006112e860268361093f565b91506112f38261128c565b604082019050919050565b60006020820190508181036000830152611317816112db565b905091905056fea26469706673582212204607f993caf86cf38659775ad958264a2bbc4f0c42b87ce30c96b67d2f6c1b5c64736f6c63430008130033",
  "linkReferences": {},
  "deployedLinkReferences": {}
}