{
  "_format": "hh-sol-artifact-1",
  "contractName": "ZombieFactory",
  "sourceName": "contracts/ZombieFactory.sol",
  "abi": [
    {
      "anonymous": false,
      "inputs": [
        {
          "indexed": false,
          "internalType": "uint256",
          "name": "zombieId",
          "type": "uint256"
        },
        {
          "indexed": false,
          "internalType": "string",
          "name": "name",
          "type": "string"
        },
        {
          "indexed": false,
          "internalType": "uint256",
          "name": "dna",
          "type": "uint256"
        }
      ],
      "name": "NewZombie",
      "type": "event"
    },
    {
      "inputs": [
        {
          "internalType": "string",
          "name": "_name",
          "type": "string"
        }
      ],
      "name": "createRandomZombie",
      "outputs": [],
      "stateMutability": "nonpayable",
      "type": "function"
    },
    {
      "inputs": [
        {
          "internalType": "uint256",
          "name": "",
          "type": "uint256"
        }
      ],
      "name": "zombieToOwner",
      "outputs": [
        {
          "internalType": "address",
          "name": "",
          "type": "address"
        }
      ],
      "stateMutability": "view",
      "type": "function"
    },
    {
      "inputs": [
        {
          "internalType": "uint256",
          "name": "",
          "type": "uint256"
        }
      ],
      "name": "zombies",
      "outputs": [
        {
          "internalType": "string",
          "name": "name",
          "type": "string"
        },
        {
          "internalType": "uint256",
          "name": "dna",
          "type": "uint256"
        }
      ],
      "stateMutability": "view",
      "type": "function"
    }
  ],
  "bytecode": "0x60806040526010600055600054600a6200001a9190620001be565b6001553480156200002a57600080fd5b506200020f565b7f4e487b7100000000000000000000000000000000000000000000000000000000600052601160045260246000fd5b60008160011c9050919050565b6000808291508390505b6001851115620000bf5780860481111562000097576200009662000031565b5b6001851615620000a75780820291505b8081029050620000b78562000060565b945062000077565b94509492505050565b600082620000da5760019050620001ad565b81620000ea5760009050620001ad565b81600181146200010357600281146200010e5762000144565b6001915050620001ad565b60ff84111562000123576200012262000031565b5b8360020a9150848211156200013d576200013c62000031565b5b50620001ad565b5060208310610133831016604e8410600b84101617156200017e5782820a90508381111562000178576200017762000031565b5b620001ad565b6200018d84848460016200006d565b92509050818404811115620001a757620001a662000031565b5b81810290505b9392505050565b6000819050919050565b6000620001cb82620001b4565b9150620001d883620001b4565b9250620002077fffffffffffffffffffffffffffffffffffffffffffffffffffffffffffffffff8484620000c8565b905092915050565b610c55806200021f6000396000f3fe608060405234801561001057600080fd5b50600436106100415760003560e01c80632052465e14610046578063528b7b8f146100775780637bff0a01146100a7575b600080fd5b610060600480360381019061005b919061043d565b6100c3565b60405161006e929190610509565b60405180910390f35b610091600480360381019061008c919061043d565b61017f565b60405161009e919061057a565b60405180910390f35b6100c160048036038101906100bc91906106ca565b6101b2565b005b600281815481106100d357600080fd5b90600052602060002090600202016000915090508060000180546100f690610742565b80601f016020809104026020016040519081016040528092919081815260200182805461012290610742565b801561016f5780601f106101445761010080835404028352916020019161016f565b820191906000526020600020905b81548152906001019060200180831161015257829003601f168201915b5050505050908060010154905082565b60036020528060005260406000206000915054906101000a900473ffffffffffffffffffffffffffffffffffffffff1681565b6000600460003373ffffffffffffffffffffffffffffffffffffffff1673ffffffffffffffffffffffffffffffffffffffff1681526020019081526020016000205414610234576040517f08c379a000000000000000000000000000000000000000000000000000000000815260040161022b906107e5565b60405180910390fd5b600061023f8261024f565b905061024b8282610294565b5050565b600080826040516020016102639190610841565b6040516020818303038152906040528051906020012060001c90506001548161028c9190610887565b915050919050565b6002604051806040016040528084815260200183815250908060018154018082558091505060019003906000526020600020906002020160009091909190915060008201518160000190816102e99190610a64565b506020820151816001015550506000600160028054905061030a9190610b65565b9050336003600083815260200190815260200160002060006101000a81548173ffffffffffffffffffffffffffffffffffffffff021916908373ffffffffffffffffffffffffffffffffffffffff160217905550600460003373ffffffffffffffffffffffffffffffffffffffff1673ffffffffffffffffffffffffffffffffffffffff16815260200190815260200160002060008154809291906103ae90610b99565b91905055507f88f026aacbbecc90c18411df4b1185fd8d9be2470f1962f192bf84a27d0704b78184846040516103e693929190610be1565b60405180910390a1505050565b6000604051905090565b600080fd5b600080fd5b6000819050919050565b61041a81610407565b811461042557600080fd5b50565b60008135905061043781610411565b92915050565b600060208284031215610453576104526103fd565b5b600061046184828501610428565b91505092915050565b600081519050919050565b600082825260208201905092915050565b60005b838110156104a4578082015181840152602081019050610489565b60008484015250505050565b6000601f19601f8301169050919050565b60006104cc8261046a565b6104d68185610475565b93506104e6818560208601610486565b6104ef816104b0565b840191505092915050565b61050381610407565b82525050565b6000604082019050818103600083015261052381856104c1565b905061053260208301846104fa565b9392505050565b600073ffffffffffffffffffffffffffffffffffffffff82169050919050565b600061056482610539565b9050919050565b61057481610559565b82525050565b600060208201905061058f600083018461056b565b92915050565b600080fd5b600080fd5b7f4e487b7100000000000000000000000000000000000000000000000000000000600052604160045260246000fd5b6105d7826104b0565b810181811067ffffffffffffffff821117156105f6576105f561059f565b5b80604052505050565b60006106096103f3565b905061061582826105ce565b919050565b600067ffffffffffffffff8211156106355761063461059f565b5b61063e826104b0565b9050602081019050919050565b82818337600083830152505050565b600061066d6106688461061a565b6105ff565b9050828152602081018484840111156106895761068861059a565b5b61069484828561064b565b509392505050565b600082601f8301126106b1576106b0610595565b5b81356106c184826020860161065a565b91505092915050565b6000602082840312156106e0576106df6103fd565b5b600082013567ffffffffffffffff8111156106fe576106fd610402565b5b61070a8482850161069c565b91505092915050565b7f4e487b7100000000000000000000000000000000000000000000000000000000600052602260045260246000fd5b6000600282049050600182168061075a57607f821691505b60208210810361076d5761076c610713565b5b50919050565b7f4f6e6c79206f6e65207a6f6d62696520706572206164647265737320696e207460008201527f6869732064656d6f210000000000000000000000000000000000000000000000602082015250565b60006107cf602983610475565b91506107da82610773565b604082019050919050565b600060208201905081810360008301526107fe816107c2565b9050919050565b600081905092915050565b600061081b8261046a565b6108258185610805565b9350610835818560208601610486565b80840191505092915050565b600061084d8284610810565b915081905092915050565b7f4e487b7100000000000000000000000000000000000000000000000000000000600052601260045260246000fd5b600061089282610407565b915061089d83610407565b9250826108ad576108ac610858565b5b828206905092915050565b60008190508160005260206000209050919050565b60006020601f8301049050919050565b600082821b905092915050565b60006008830261091a7fffffffffffffffffffffffffffffffffffffffffffffffffffffffffffffffff826108dd565b61092486836108dd565b95508019841693508086168417925050509392505050565b6000819050919050565b600061096161095c61095784610407565b61093c565b610407565b9050919050565b6000819050919050565b61097b83610946565b61098f61098782610968565b8484546108ea565b825550505050565b600090565b6109a4610997565b6109af818484610972565b505050565b5b818110156109d3576109c860008261099c565b6001810190506109b5565b5050565b601f821115610a18576109e9816108b8565b6109f2846108cd565b81016020851015610a01578190505b610a15610a0d856108cd565b8301826109b4565b50505b505050565b600082821c905092915050565b6000610a3b60001984600802610a1d565b1980831691505092915050565b6000610a548383610a2a565b9150826002028217905092915050565b610a6d8261046a565b67ffffffffffffffff811115610a8657610a8561059f565b5b610a908254610742565b610a9b8282856109d7565b600060209050601f831160018114610ace5760008415610abc578287015190505b610ac68582610a48565b865550610b2e565b601f198416610adc866108b8565b60005b82811015610b0457848901518255600182019150602085019450602081019050610adf565b86831015610b215784890151610b1d601f891682610a2a565b8355505b6001600288020188555050505b505050505050565b7f4e487b7100000000000000000000000000000000000000000000000000000000600052601160045260246000fd5b6000610b7082610407565b9150610b7b83610407565b9250828203905081811115610b9357610b92610b36565b5b92915050565b6000610ba482610407565b91507fffffffffffffffffffffffffffffffffffffffffffffffffffffffffffffffff8203610bd657610bd5610b36565b5b600182019050919050565b6000606082019050610bf660008301866104fa565b8181036020830152610c0881856104c1565b9050610c1760408301846104fa565b94935050505056fea26469706673582212205046672ed79b13181a206c6a384eedd5a9387be2f8885580367c47a7d865f38564736f6c63430008130033",
  "linkReferences": {},
  "deployedLinkReferences": {}
}